{
  "contractName": "SafeMath",
  "abi": [
    {
      "inputs": [
        {
          "internalType": "uint256",
          "name": "a",
          "type": "uint256"
        },
        {
          "internalType": "uint256",
          "name": "b",
          "type": "uint256"
        }
      ],
      "name": "safeAdd",
      "outputs": [
        {
          "internalType": "uint256",
          "name": "c",
          "type": "uint256"
        }
      ],
      "stateMutability": "pure",
      "type": "function"
    },
    {
      "inputs": [
        {
          "internalType": "uint256",
          "name": "a",
          "type": "uint256"
        },
        {
          "internalType": "uint256",
          "name": "b",
          "type": "uint256"
        }
      ],
      "name": "safeSub",
      "outputs": [
        {
          "internalType": "uint256",
          "name": "c",
          "type": "uint256"
        }
      ],
      "stateMutability": "pure",
      "type": "function"
    },
    {
      "inputs": [
        {
          "internalType": "uint256",
          "name": "a",
          "type": "uint256"
        },
        {
          "internalType": "uint256",
          "name": "b",
          "type": "uint256"
        }
      ],
      "name": "safeMul",
      "outputs": [
        {
          "internalType": "uint256",
          "name": "c",
          "type": "uint256"
        }
      ],
      "stateMutability": "pure",
      "type": "function"
    },
    {
      "inputs": [
        {
          "internalType": "uint256",
          "name": "a",
          "type": "uint256"
        },
        {
          "internalType": "uint256",
          "name": "b",
          "type": "uint256"
        }
      ],
      "name": "safeDiv",
      "outputs": [
        {
          "internalType": "uint256",
          "name": "c",
          "type": "uint256"
        }
      ],
      "stateMutability": "pure",
      "type": "function"
    }
  ],
  "bytecode": "0x608060405234801561001057600080fd5b506103f6806100206000396000f3fe608060405234801561001057600080fd5b506004361061004c5760003560e01c8063a293d1e814610051578063b5931f7c14610081578063d05c78da146100b1578063e6cb9013146100e1575b600080fd5b61006b600480360381019061006691906101c6565b610111565b6040516100789190610211565b60405180910390f35b61009b600480360381019061009691906101c6565b610134565b6040516100a89190610211565b60405180910390f35b6100cb60048036038101906100c691906101c6565b610156565b6040516100d89190610211565b60405180910390f35b6100fb60048036038101906100f691906101c6565b61018e565b6040516101089190610211565b60405180910390f35b60008282111561012057600080fd5b818361012c919061030d565b905092915050565b600080821161014257600080fd5b818361014e9190610282565b905092915050565b6000818361016491906102b3565b9050600083148061017f575081838261017d9190610282565b145b61018857600080fd5b92915050565b6000818361019c919061022c565b9050828110156101ab57600080fd5b92915050565b6000813590506101c0816103a9565b92915050565b600080604083850312156101d957600080fd5b60006101e7858286016101b1565b92505060206101f8858286016101b1565b9150509250929050565b61020b81610341565b82525050565b60006020820190506102266000830184610202565b92915050565b600061023782610341565b915061024283610341565b9250827fffffffffffffffffffffffffffffffffffffffffffffffffffffffffffffffff038211156102775761027661034b565b5b828201905092915050565b600061028d82610341565b915061029883610341565b9250826102a8576102a761037a565b5b828204905092915050565b60006102be82610341565b91506102c983610341565b9250817fffffffffffffffffffffffffffffffffffffffffffffffffffffffffffffffff04831182151516156103025761030161034b565b5b828202905092915050565b600061031882610341565b915061032383610341565b9250828210156103365761033561034b565b5b828203905092915050565b6000819050919050565b7f4e487b7100000000000000000000000000000000000000000000000000000000600052601160045260246000fd5b7f4e487b7100000000000000000000000000000000000000000000000000000000600052601260045260246000fd5b6103b281610341565b81146103bd57600080fd5b5056fea2646970667358221220a04beea3c3c2e12a6620082459e443e3a51e2b7e7ebdf726ac980257da3c337664736f6c63430008000033",
  "immutableReferences": {},
  "source": "pragma solidity ^0.8.0;\n\nimport \"@openzeppelin/contracts/token/ERC20/ERC20.sol\";\nimport \"@openzeppelin/contracts/access/Ownable.sol\";\n// contract CloudSilver is ERC20 {\n//     address owner = 0xbcdbfAe7507AD99C337599B3c5B8564A5595E838;\n\n//     constructor() public ERC20(\"CloudSilver\", \"CSVR\"){\n//         _mint(msg.sender, 1000000000000000000000000);\n//     }\n\n\n//     function mint(address _to, uint _value) public {\n//         require(msg.sender == owner); // assuming you have a contract owner\n//         _mint(_to, _value);\n//     }\n\n// }\n\n\n\n\n\ncontract SafeMath {\n    function safeAdd(uint a, uint b) public pure returns (uint c) {\n        c = a + b;\n        require(c >= a);\n    }\n    function safeSub(uint a, uint b) public pure returns (uint c) {\n        require(b <= a);\n        c = a - b;\n    }\n    function safeMul(uint a, uint b) public pure returns (uint c) {\n        c = a * b;\n        require(a == 0 || c / a == b);\n    }\n    function safeDiv(uint a, uint b) public pure returns (uint c) {\n        require(b > 0);\n        c = a / b;\n    }\n}\nabstract contract ERC20Interface {\n    function balanceOf(address tokenOwner) virtual public view returns (uint balance);\n    function allowance(address tokenOwner, address spender) virtual public view returns (uint remaining);\n    function transfer(address to, uint tokens) virtual public returns (bool success);\n    function approve(address spender, uint tokens) virtual public returns (bool success);\n    function transferFrom(address from, address to, uint tokens) virtual public returns (bool success);\n    function mint(address to, uint value) virtual public returns (bool success);\n\n    event Transfer(address indexed from, address indexed to, uint tokens);\n    event Approval(address indexed tokenOwner, address indexed spender, uint tokens);\n}\nabstract contract ApproveAndCallFallBack {\n    function receiveApproval(address from, uint256 tokens, address token, bytes memory data) virtual public;\n}\ncontract Owned {\n    address public owner = 0x9f6445d23f16A247a78267Ea99B39276af05dc1D;\n    address public newOwner;\n\n    event OwnershipTransferred(address indexed _from, address indexed _to);\n\n    constructor() public {\n        owner = msg.sender;\n    }\n\n    modifier onlyOwner {\n        require(msg.sender == owner);\n        _;\n    }\n\n    function transferOwnership(address _newOwner) public onlyOwner {\n        newOwner = _newOwner;\n    }\n    function acceptOwnership() public {\n        require(msg.sender == newOwner);\n        emit OwnershipTransferred(owner, newOwner);\n        owner = newOwner;\n        newOwner = address(0);\n    }\n}\n\n\ncontract CloudSilver is ERC20 {\n\n    constructor(\n        string memory name,\n        string memory symbol,\n        uint256 initialSupply\n    ) public ERC20(name, symbol) {\n        //_mint(msg.sender, initialSupply);\n    }\n\n    function mint(address to, uint256 amount) public {\n        address owner = 0x03018bD7236BC817905c84D84Fe028e240464201; // ropsten\n        //address owner = 0x6f86488A70DE6eb6502530dD634D981Da3f3dbeb; //homenet\n        require((msg.sender == owner), \"Caller is not a minter\");\n        _mint(to, amount);\n    }\n}\n\n",
  "sourcePath": "C:\\Users\\Joshua\\Documents\\coding\\cloudiverse\\erc-20\\contracts\\CloudSilver.sol",
  "compiler": {
    "name": "solc",
    "version": "0.8.0+commit.c7dfd78e.Emscripten.clang"
  },
  "schemaVersion": "3.4.3",
  "updatedAt": "2021-10-24T22:23:09.289Z",
  "devdoc": {
    "kind": "dev",
    "methods": {},
    "version": 1
  },
  "userdoc": {
    "kind": "user",
    "methods": {},
    "version": 1
  }
}